{
  "contractName": "AufGame",
  "abi": [
    {
      "inputs": [
        {
          "internalType": "contract AufToken",
          "name": "_aufToken",
          "type": "address"
        },
        {
          "internalType": "contract AufNFT",
          "name": "_aufNFT",
          "type": "address"
        }
      ],
      "stateMutability": "nonpayable",
      "type": "constructor"
    },
    {
      "anonymous": false,
      "inputs": [
        {
          "indexed": false,
          "internalType": "string",
          "name": "room_id",
          "type": "string"
        },
        {
          "indexed": false,
          "internalType": "uint256",
          "name": "a",
          "type": "uint256"
        },
        {
          "indexed": false,
          "internalType": "uint256",
          "name": "b",
          "type": "uint256"
        }
      ],
      "name": "BetPlaced",
      "type": "event"
    },
    {
      "anonymous": false,
      "inputs": [
        {
          "indexed": false,
          "internalType": "string",
          "name": "room_id",
          "type": "string"
        },
        {
          "indexed": false,
          "internalType": "string",
          "name": "text_",
          "type": "string"
        }
      ],
      "name": "CurrentStatus",
      "type": "event"
    },
    {
      "anonymous": false,
      "inputs": [
        {
          "indexed": false,
          "internalType": "string",
          "name": "room_id",
          "type": "string"
        },
        {
          "indexed": false,
          "internalType": "address",
          "name": "player_",
          "type": "address"
        }
      ],
      "name": "JoinedToRoom",
      "type": "event"
    },
    {
      "anonymous": false,
      "inputs": [
        {
          "indexed": false,
          "internalType": "string",
          "name": "a",
          "type": "string"
        }
      ],
      "name": "Log",
      "type": "event"
    },
    {
      "anonymous": false,
      "inputs": [
        {
          "indexed": true,
          "internalType": "address",
          "name": "previousOwner",
          "type": "address"
        },
        {
          "indexed": true,
          "internalType": "address",
          "name": "newOwner",
          "type": "address"
        }
      ],
      "name": "OwnershipTransferred",
      "type": "event"
    },
    {
      "anonymous": false,
      "inputs": [
        {
          "indexed": false,
          "internalType": "string",
          "name": "room_id",
          "type": "string"
        },
        {
          "indexed": false,
          "internalType": "address",
          "name": "player_",
          "type": "address"
        }
      ],
      "name": "RoomCreated",
      "type": "event"
    },
    {
      "inputs": [],
      "name": "aufNFT",
      "outputs": [
        {
          "internalType": "contract AufNFT",
          "name": "",
          "type": "address"
        }
      ],
      "stateMutability": "view",
      "type": "function",
      "constant": true
    },
    {
      "inputs": [],
      "name": "aufToken",
      "outputs": [
        {
          "internalType": "contract AufToken",
          "name": "",
          "type": "address"
        }
      ],
      "stateMutability": "view",
      "type": "function",
      "constant": true
    },
    {
      "inputs": [],
      "name": "isOwner",
      "outputs": [
        {
          "internalType": "bool",
          "name": "",
          "type": "bool"
        }
      ],
      "stateMutability": "view",
      "type": "function",
      "constant": true
    },
    {
      "inputs": [],
      "name": "name",
      "outputs": [
        {
          "internalType": "string",
          "name": "",
          "type": "string"
        }
      ],
      "stateMutability": "view",
      "type": "function",
      "constant": true
    },
    {
      "inputs": [],
      "name": "owner",
      "outputs": [
        {
          "internalType": "address",
          "name": "",
          "type": "address"
        }
      ],
      "stateMutability": "view",
      "type": "function",
      "constant": true
    },
    {
      "inputs": [
        {
          "internalType": "address",
          "name": "_newOwner",
          "type": "address"
        }
      ],
      "name": "transferOwnership",
      "outputs": [],
      "stateMutability": "nonpayable",
      "type": "function"
    },
    {
      "inputs": [
        {
          "internalType": "string",
          "name": "room_id",
          "type": "string"
        }
      ],
      "name": "findRindex",
      "outputs": [
        {
          "internalType": "uint256",
          "name": "",
          "type": "uint256"
        }
      ],
      "stateMutability": "view",
      "type": "function",
      "constant": true
    },
    {
      "inputs": [
        {
          "internalType": "string",
          "name": "room_id",
          "type": "string"
        }
      ],
      "name": "roomBank",
      "outputs": [
        {
          "internalType": "uint256",
          "name": "",
          "type": "uint256"
        }
      ],
      "stateMutability": "view",
      "type": "function",
      "constant": true
    },
    {
      "inputs": [
        {
          "internalType": "string",
          "name": "room_id",
          "type": "string"
        }
      ],
      "name": "roomLimit",
      "outputs": [
        {
          "internalType": "uint256",
          "name": "",
          "type": "uint256"
        }
      ],
      "stateMutability": "view",
      "type": "function",
      "constant": true
    },
    {
      "inputs": [
        {
          "internalType": "string",
          "name": "room_id",
          "type": "string"
        }
      ],
      "name": "bidsCount",
      "outputs": [
        {
          "internalType": "uint256",
          "name": "",
          "type": "uint256"
        }
      ],
      "stateMutability": "view",
      "type": "function",
      "constant": true
    },
    {
      "inputs": [
        {
          "internalType": "string",
          "name": "room_id",
          "type": "string"
        },
        {
          "internalType": "address",
          "name": "account",
          "type": "address"
        }
      ],
      "name": "findPindex",
      "outputs": [
        {
          "internalType": "uint256",
          "name": "",
          "type": "uint256"
        }
      ],
      "stateMutability": "view",
      "type": "function",
      "constant": true
    },
    {
      "inputs": [
        {
          "internalType": "string",
          "name": "room_id",
          "type": "string"
        }
      ],
      "name": "roomStatus",
      "outputs": [
        {
          "internalType": "uint256",
          "name": "",
          "type": "uint256"
        }
      ],
      "stateMutability": "view",
      "type": "function",
      "constant": true
    },
    {
      "inputs": [
        {
          "internalType": "string",
          "name": "room_id",
          "type": "string"
        },
        {
          "internalType": "string",
          "name": "player_name",
          "type": "string"
        },
        {
          "internalType": "uint256",
          "name": "nftid",
          "type": "uint256"
        },
        {
          "internalType": "uint256",
          "name": "bidslimit",
          "type": "uint256"
        }
      ],
      "name": "createRoom",
      "outputs": [],
      "stateMutability": "nonpayable",
      "type": "function"
    },
    {
      "inputs": [
        {
          "internalType": "string",
          "name": "room_id",
          "type": "string"
        },
        {
          "internalType": "string",
          "name": "player_name",
          "type": "string"
        },
        {
          "internalType": "uint256",
          "name": "nftid",
          "type": "uint256"
        }
      ],
      "name": "joinRoom",
      "outputs": [],
      "stateMutability": "nonpayable",
      "type": "function"
    },
    {
      "inputs": [
        {
          "internalType": "uint256",
          "name": "stake",
          "type": "uint256"
        },
        {
          "internalType": "string",
          "name": "room_id",
          "type": "string"
        }
      ],
      "name": "Bet",
      "outputs": [],
      "stateMutability": "nonpayable",
      "type": "function"
    },
    {
      "inputs": [
        {
          "internalType": "string",
          "name": "room_id",
          "type": "string"
        }
      ],
      "name": "gameStart",
      "outputs": [],
      "stateMutability": "nonpayable",
      "type": "function"
    },
    {
      "inputs": [
        {
          "internalType": "string",
          "name": "room_id",
          "type": "string"
        },
        {
          "internalType": "uint256",
          "name": "winners",
          "type": "uint256"
        }
      ],
      "name": "getRewards",
      "outputs": [],
      "stateMutability": "nonpayable",
      "type": "function"
    },
    {
      "inputs": [
        {
          "internalType": "string",
          "name": "room_id",
          "type": "string"
        }
      ],
      "name": "withdrawPlayers",
      "outputs": [],
      "stateMutability": "nonpayable",
      "type": "function"
    }
  ],
  "bytecode": "0x60806040526040518060400160405280601481526020017f4155462067616d6520636f72652076302e332e30000000000000000000000000815250600190805190602001906200005192919062000224565b506000620109a455683635c9adc5dea00000620109a555600d620109a660006101000a81548173ffffffffffffffffffffffffffffffffffffffff021916908373ffffffffffffffffffffffffffffffffffffffff160217905550348015620000b957600080fd5b5060405162003906380380620039068339818101604052810190620000df9190620002f8565b336000806101000a81548173ffffffffffffffffffffffffffffffffffffffff021916908373ffffffffffffffffffffffffffffffffffffffff16021790555060008054906101000a900473ffffffffffffffffffffffffffffffffffffffff1673ffffffffffffffffffffffffffffffffffffffff16600073ffffffffffffffffffffffffffffffffffffffff167f8be0079c531659141344cd1fd0a4f28419497f9722a3daafe3b4186f6b6457e060405160405180910390a381600260006101000a81548173ffffffffffffffffffffffffffffffffffffffff021916908373ffffffffffffffffffffffffffffffffffffffff16021790555080600360006101000a81548173ffffffffffffffffffffffffffffffffffffffff021916908373ffffffffffffffffffffffffffffffffffffffff1602179055505050620003dd565b828054600181600116156101000203166002900490600052602060002090601f016020900481019282601f106200026757805160ff191683800117855562000298565b8280016001018555821562000298579182015b82811115620002975782518255916020019190600101906200027a565b5b509050620002a79190620002ab565b5090565b5b80821115620002c6576000816000905550600101620002ac565b5090565b600081519050620002db81620003a9565b92915050565b600081519050620002f281620003c3565b92915050565b600080604083850312156200030c57600080fd5b60006200031c85828601620002e1565b92505060206200032f85828601620002ca565b9150509250929050565b6000620003468262000389565b9050919050565b60006200035a8262000389565b9050919050565b60006200036e8262000339565b9050919050565b600062000382826200034d565b9050919050565b600073ffffffffffffffffffffffffffffffffffffffff82169050919050565b620003b48162000361565b8114620003c057600080fd5b50565b620003ce8162000375565b8114620003da57600080fd5b50565b61351980620003ed6000396000f3fe608060405234801561001057600080fd5b50600436106101165760003560e01c80638da5cb5b116100a2578063aa0a84bf11610071578063aa0a84bf146102e1578063b0f2eeac14610311578063df54439d14610341578063f2fde38b1461035d578063fa5188c21461037957610116565b80638da5cb5b146102595780638f32d59b14610277578063a93a9dae14610295578063a945566f146102c557610116565b80633a58103e116100e95780633a58103e146101a1578063591744f7146101bf5780637cdad930146101ef5780637f19063f1461020b57806388fc7e3d1461023b57610116565b806306fdde031461011b5780630c77bdab1461013957806333f3197e14610155578063344d6a0914610171575b600080fd5b610123610395565b6040516101309190613093565b60405180910390f35b610153600480360381019061014e91906125a9565b610433565b005b61016f600480360381019061016a91906127e3565b610997565b005b61018b60048036038101906101869190612725565b610eb1565b60405161019891906132d5565b60405180910390f35b6101a9610ef7565b6040516101b69190612fcf565b60405180910390f35b6101d960048036038101906101d49190612725565b610f1d565b6040516101e691906132d5565b60405180910390f35b610209600480360381019061020491906126cd565b610fe2565b005b61022560048036038101906102209190612725565b611351565b60405161023291906132d5565b60405180910390f35b610243611397565b6040516102509190612fb4565b60405180910390f35b6102616113bd565b60405161026e9190612eda565b60405180910390f35b61027f6113e6565b60405161028c9190612f99565b60405180910390f35b6102af60048036038101906102aa9190612725565b61143d565b6040516102bc91906132d5565b60405180910390f35b6102df60048036038101906102da9190612564565b611546565b005b6102fb60048036038101906102f69190612766565b61185b565b60405161030891906132d5565b60405180910390f35b61032b60048036038101906103269190612725565b61191e565b60405161033891906132d5565b60405180910390f35b61035b60048036038101906103569190612564565b611964565b005b610377600480360381019061037291906124e9565b611b80565b005b610393600480360381019061038e9190612632565b611bd3565b005b60018054600181600116156101000203166002900480601f01602080910402602001604051908101604052809291908181526020018280546001816001161561010002031660029004801561042b5780601f106104005761010080835404028352916020019161042b565b820191906000526020600020905b81548152906001019060200180831161040e57829003601f168201915b505050505081565b600061048286868080601f016020809104026020016040519081016040528093929190818152602001838380828437600081840152601f19601f82011690508083019250505050505050610f1d565b905061d4318114156104c9576040517f08c379a00000000000000000000000000000000000000000000000000000000081526004016104c090613155565b60405180910390fd5b600015156004826103e881106104db57fe5b6044020160010160019054906101000a900460ff16151514610532576040517f08c379a000000000000000000000000000000000000000000000000000000000815260040161052990613115565b60405180910390fd5b6001600281111561053f57fe5b6004826103e8811061054d57fe5b6044020160010160009054906101000a900460ff16600281111561056d57fe5b146105ad576040517f08c379a00000000000000000000000000000000000000000000000000000000081526004016105a490613175565b60405180910390fd5b3373ffffffffffffffffffffffffffffffffffffffff16600360009054906101000a900473ffffffffffffffffffffffffffffffffffffffff1673ffffffffffffffffffffffffffffffffffffffff16636352211e846040518263ffffffff1660e01b815260040161061f91906132d5565b60206040518083038186803b15801561063757600080fd5b505afa15801561064b573d6000803e3d6000fd5b505050506040513d601f19601f8201168201806040525081019061066f9190612512565b73ffffffffffffffffffffffffffffffffffffffff16146106c5576040517f08c379a00000000000000000000000000000000000000000000000000000000081526004016106bc90613235565b60405180910390fd5b601082111561078457600360009054906101000a900473ffffffffffffffffffffffffffffffffffffffff1673ffffffffffffffffffffffffffffffffffffffff166323b872dd33620109a660009054906101000a900473ffffffffffffffffffffffffffffffffffffffff16856040518463ffffffff1660e01b815260040161075193929190612f10565b600060405180830381600087803b15801561076b57600080fd5b505af115801561077f573d6000803e3d6000fd5b505050505b336004826103e8811061079357fe5b604402016008016004836103e881106107a857fe5b6044020160020154600f81106107ba57fe5b6004020160000160006101000a81548173ffffffffffffffffffffffffffffffffffffffff021916908373ffffffffffffffffffffffffffffffffffffffff16021790555083836004836103e8811061080f57fe5b604402016008016004846103e8811061082457fe5b6044020160020154600f811061083657fe5b60040201600101919061084a929190612345565b5060006004826103e8811061085b57fe5b604402016008016004836103e8811061087057fe5b6044020160020154600f811061088257fe5b6004020160020160006101000a81548160ff02191690831515021790555060006004826103e881106108b057fe5b604402016008016004836103e881106108c557fe5b6044020160020154600f81106108d757fe5b60040201600301819055507f7b7645272b939dd510cadc27fb0b70528590c0182d096b6031c4bcd7ad54e28c86863360405161091593929190612fea565b60405180910390a16004816103e8811061092b57fe5b6044020160020160008154809291906001019190505550600f6004826103e8811061095257fe5b6044020160020154141561098f5760016004826103e8811061097057fe5b6044020160010160016101000a81548160ff0219169083151502179055505b505050505050565b82620109a5548110156109df576040517f08c379a00000000000000000000000000000000000000000000000000000000081526004016109d6906131b5565b60405180910390fd5b82828080601f016020809104026020016040519081016040528093929190818152602001838380828437600081840152601f19601f820116905080830192505050505050506000610a30823361185b565b90506015811415610a76576040517f08c379a0000000000000000000000000000000000000000000000000000000008152600401610a6d90613135565b60405180910390fd5b6000610ac586868080601f016020809104026020016040519081016040528093929190818152602001838380828437600081840152601f19601f82011690508083019250505050505050610f1d565b90506000610b1787878080601f016020809104026020016040519081016040528093929190818152602001838380828437600081840152601f19601f820116905080830192505050505050503361185b565b90506015811415610b5d576040517f08c379a0000000000000000000000000000000000000000000000000000000008152600401610b5490613255565b60405180910390fd5b60016002811115610b6a57fe5b6004836103e88110610b7857fe5b6044020160010160009054906101000a900460ff166002811115610b9857fe5b14610bd8576040517f08c379a0000000000000000000000000000000000000000000000000000000008152600401610bcf90613175565b60405180910390fd5b87600260009054906101000a900473ffffffffffffffffffffffffffffffffffffffff1673ffffffffffffffffffffffffffffffffffffffff166370a08231336040518263ffffffff1660e01b8152600401610c349190612ef5565b60206040518083038186803b158015610c4c57600080fd5b505afa158015610c60573d6000803e3d6000fd5b505050506040513d601f19601f82011682018060405250810190610c8491906127ba565b1015610cc5576040517f08c379a0000000000000000000000000000000000000000000000000000000008152600401610cbc90613295565b60405180910390fd5b600260009054906101000a900473ffffffffffffffffffffffffffffffffffffffff1673ffffffffffffffffffffffffffffffffffffffff166323b872dd33308b6040518463ffffffff1660e01b8152600401610d2493929190612f10565b602060405180830381600087803b158015610d3e57600080fd5b505af1158015610d52573d6000803e3d6000fd5b505050506040513d601f19601f82011682018060405250810190610d76919061253b565b506004826103e88110610d8557fe5b6044020160050160008154809291906001019190505550876004836103e88110610dab57fe5b604402016003016000828254019250508190555060006004836103e88110610dcf57fe5b6044020160050154905060006004846103e88110610de957fe5b6044020160030154905060016004856103e88110610e0357fe5b6044020160080184600f8110610e1557fe5b6004020160020160006101000a81548160ff021916908315150217905550896004856103e88110610e4257fe5b6044020160080184600f8110610e5457fe5b60040201600301600082825401925050819055507f85b0ee3049ace693bb9ec1c8aaa6b7dc0991fa2664c141afbd803e6c9bedb4cc89898484604051610e9d9493929190613053565b60405180910390a150505050505050505050565b600080610ebd83610f1d565b905061d4318114610eec5760006004826103e88110610ed857fe5b604402016005015490508092505050610ef2565b60009150505b919050565b600260009054906101000a900473ffffffffffffffffffffffffffffffffffffffff1681565b600080600090505b6103e8811015610fd6576004816103e88110610f3d57fe5b6044020160010160029054906101000a900460ff1615610fc95782604051602001610f689190612eac565b604051602081830303815290604052805190602001206004826103e88110610f8c57fe5b60440201600001604051602001610fa39190612ec3565b604051602081830303815290604052805190602001201415610fc85780915050610fdd565b5b8080600101915050610f25565b5061d43190505b919050565b82828080601f016020809104026020016040519081016040528093929190818152602001838380828437600081840152601f19601f820116905080830192505050505050506000611033823361185b565b90506015811415611079576040517f08c379a000000000000000000000000000000000000000000000000000000000815260040161107090613135565b60405180910390fd5b60006110c886868080601f016020809104026020016040519081016040528093929190818152602001838380828437600081840152601f19601f82011690508083019250505050505050610f1d565b9050600160028111156110d757fe5b6004826103e881106110e557fe5b6044020160010160009054906101000a900460ff16600281111561110557fe5b14611145576040517f08c379a000000000000000000000000000000000000000000000000000000000815260040161113c90613195565b60405180910390fd5b6000841180156111555750600f84105b61115e57600080fd5b60006004826103e8811061116e57fe5b6044020160040154141561119757836004826103e8811061118b57fe5b60440201600401819055505b60006004826103e881106111a757fe5b60440201600401546004836103e881106111bd57fe5b6044020160030154816111cc57fe5b066004836103e881106111db57fe5b60440201600401546004846103e881106111f157fe5b60440201600301548161120057fe5b04039050600260009054906101000a900473ffffffffffffffffffffffffffffffffffffffff1673ffffffffffffffffffffffffffffffffffffffff1663a9059cbb33836040518363ffffffff1660e01b8152600401611261929190612f47565b602060405180830381600087803b15801561127b57600080fd5b505af115801561128f573d6000803e3d6000fd5b505050506040513d601f19601f820116820180604052508101906112b3919061253b565b506004826103e881106112c257fe5b60440201600601600081548092919060010191905055506004826103e881106112e757fe5b60440201600401546004836103e881106112fd57fe5b604402016006015414156113485760028081111561131757fe5b6004836103e8811061132557fe5b6044020160010160009054906101000a900460ff16600281111561134557fe5b50505b50505050505050565b60008061135d83610f1d565b905061d431811461138c5760006004826103e8811061137857fe5b604402016007015490508092505050611392565b60009150505b919050565b600360009054906101000a900473ffffffffffffffffffffffffffffffffffffffff1681565b60008060009054906101000a900473ffffffffffffffffffffffffffffffffffffffff16905090565b60008060009054906101000a900473ffffffffffffffffffffffffffffffffffffffff1673ffffffffffffffffffffffffffffffffffffffff163373ffffffffffffffffffffffffffffffffffffffff1614905090565b60008061144983610f1d565b905061d43181141561145f576000915050611541565b6001600281111561146c57fe5b6004826103e8811061147a57fe5b6044020160010160009054906101000a900460ff16600281111561149a57fe5b14156114aa576001915050611541565b6002808111156114b657fe5b6004826103e881106114c457fe5b6044020160010160009054906101000a900460ff1660028111156114e457fe5b14156114f4576002915050611541565b6000600281111561150157fe5b6004826103e8811061150f57fe5b6044020160010160009054906101000a900460ff16600281111561152f57fe5b141561153f576003915050611541565b505b919050565b61154e6113e6565b61158d576040517f08c379a0000000000000000000000000000000000000000000000000000000008152600401611584906131f5565b60405180910390fd5b60006115dc83838080601f016020809104026020016040519081016040528093929190818152602001838380828437600081840152601f19601f82011690508083019250505050505050610f1d565b9050600160028111156115eb57fe5b6004826103e881106115f957fe5b6044020160010160009054906101000a900460ff16600281111561161957fe5b14611659576040517f08c379a000000000000000000000000000000000000000000000000000000000815260040161165090613195565b60405180910390fd5b60006004826103e8811061166957fe5b6044020160030154116116b1576040517f08c379a00000000000000000000000000000000000000000000000000000000081526004016116a8906131d5565b60405180910390fd5b60005b600f8110156118195760006004836103e881106116cd57fe5b6044020160080182600f81106116df57fe5b6004020160030154111561180c57600260009054906101000a900473ffffffffffffffffffffffffffffffffffffffff1673ffffffffffffffffffffffffffffffffffffffff1663a9059cbb6004846103e8811061173957fe5b6044020160080183600f811061174b57fe5b6004020160000160009054906101000a900473ffffffffffffffffffffffffffffffffffffffff166004856103e8811061178157fe5b6044020160080184600f811061179357fe5b60040201600301546040518363ffffffff1660e01b81526004016117b8929190612f70565b602060405180830381600087803b1580156117d257600080fd5b505af11580156117e6573d6000803e3d6000fd5b505050506040513d601f19601f8201168201806040525081019061180a919061253b565b505b80806001019150506116b4565b5060028081111561182657fe5b6004826103e8811061183457fe5b6044020160010160009054906101000a900460ff16600281111561185457fe5b5050505050565b60008061186784610f1d565b905061d43181146119125760005b600f811015611910578373ffffffffffffffffffffffffffffffffffffffff166004836103e881106118a357fe5b6044020160080182600f81106118b557fe5b6004020160000160009054906101000a900473ffffffffffffffffffffffffffffffffffffffff1673ffffffffffffffffffffffffffffffffffffffff161415611903578092505050611918565b8080600101915050611875565b505b60159150505b92915050565b60008061192a83610f1d565b905061d43181146119595760006004826103e8811061194557fe5b60440201600301549050809250505061195f565b60009150505b919050565b81818080601f016020809104026020016040519081016040528093929190818152602001838380828437600081840152601f19601f8201169050808301925050505050505060006119b5823361185b565b9050600081146119fa576040517f08c379a00000000000000000000000000000000000000000000000000000000081526004016119f1906132b5565b60405180910390fd5b6000611a4985858080601f016020809104026020016040519081016040528093929190818152602001838380828437600081840152601f19601f82011690508083019250505050505050610f1d565b905060066004826103e88110611a5b57fe5b5050600f1015611aa0576040517f08c379a0000000000000000000000000000000000000000000000000000000008152600401611a97906130b5565b60405180910390fd5b6004816103e88110611aae57fe5b60440201600501546004826103e88110611ac457fe5b5050600f1115611b09576040517f08c379a0000000000000000000000000000000000000000000000000000000008152600401611b0090613275565b60405180910390fd5b60006004826103e88110611b1957fe5b6044020160010160006101000a81548160ff02191690836002811115611b3b57fe5b02179055507f556bbc7639b3bb3ee5c7acb450dd5fc1156d8c46feed1082b749c4f0d694ea528585604051611b7192919061301c565b60405180910390a15050505050565b611b886113e6565b611bc7576040517f08c379a0000000000000000000000000000000000000000000000000000000008152600401611bbe906131f5565b60405180910390fd5b611bd081612218565b50565b6103e8620109a45410611c1b576040517f08c379a0000000000000000000000000000000000000000000000000000000008152600401611c12906130f5565b60405180910390fd5b620109a554811015611c2c57600080fd5b6000611c7b87878080601f016020809104026020016040519081016040528093929190818152602001838380828437600081840152601f19601f82011690508083019250505050505050610f1d565b905061d4318114611cc1576040517f08c379a0000000000000000000000000000000000000000000000000000000008152600401611cb890613215565b60405180910390fd5b3373ffffffffffffffffffffffffffffffffffffffff16600360009054906101000a900473ffffffffffffffffffffffffffffffffffffffff1673ffffffffffffffffffffffffffffffffffffffff16636352211e856040518263ffffffff1660e01b8152600401611d3391906132d5565b60206040518083038186803b158015611d4b57600080fd5b505afa158015611d5f573d6000803e3d6000fd5b505050506040513d601f19601f82011682018060405250810190611d839190612512565b73ffffffffffffffffffffffffffffffffffffffff1614611dd9576040517f08c379a0000000000000000000000000000000000000000000000000000000008152600401611dd090613235565b60405180910390fd5b6010831115611e9857600360009054906101000a900473ffffffffffffffffffffffffffffffffffffffff1673ffffffffffffffffffffffffffffffffffffffff166323b872dd33620109a660009054906101000a900473ffffffffffffffffffffffffffffffffffffffff16866040518463ffffffff1660e01b8152600401611e6593929190612f10565b600060405180830381600087803b158015611e7f57600080fd5b505af1158015611e93573d6000803e3d6000fd5b505050505b86866004620109a4546103e88110611eac57fe5b604402016000019190611ec0929190612345565b5060016004620109a4546103e88110611ed557fe5b6044020160010160006101000a81548160ff02191690836002811115611ef757fe5b021790555060006004620109a4546103e88110611f1057fe5b6044020160010160016101000a81548160ff02191690831515021790555060016004620109a4546103e88110611f4257fe5b6044020160010160026101000a81548160ff02191690831515021790555060006004620109a4546103e88110611f7457fe5b604402016002018190555060006004620109a4546103e88110611f9357fe5b604402016003018190555060006004620109a4546103e88110611fb257fe5b604402016005018190555060006004620109a4546103e88110611fd157fe5b604402016006018190555060006004620109a4546103e88110611ff057fe5b6044020160040181905550816004620109a4546103e8811061200e57fe5b6044020160070181905550336004620109a4546103e8811061202c57fe5b604402016008016004620109a4546103e8811061204557fe5b6044020160020154600f811061205757fe5b6004020160000160006101000a81548173ffffffffffffffffffffffffffffffffffffffff021916908373ffffffffffffffffffffffffffffffffffffffff16021790555084846004620109a4546103e881106120b057fe5b604402016008016004620109a4546103e881106120c957fe5b6044020160020154600f81106120db57fe5b6004020160010191906120ef929190612345565b5060006004620109a4546103e8811061210457fe5b604402016008016004620109a4546103e8811061211d57fe5b6044020160020154600f811061212f57fe5b6004020160020160006101000a81548160ff02191690831515021790555060006004620109a4546103e8811061216157fe5b604402016008016004620109a4546103e8811061217a57fe5b6044020160020154600f811061218c57fe5b60040201600301819055507fa2e60442d1681d30a8ec4af9ca93c037ba47c628c98b8488d4af7df632749fe48787336040516121ca93929190612fea565b60405180910390a16004620109a4546103e881106121e457fe5b6044020160020160008154809291906001019190505550620109a46000815480929190600101919050555050505050505050565b600073ffffffffffffffffffffffffffffffffffffffff168173ffffffffffffffffffffffffffffffffffffffff161415612288576040517f08c379a000000000000000000000000000000000000000000000000000000000815260040161227f906130d5565b60405180910390fd5b8073ffffffffffffffffffffffffffffffffffffffff1660008054906101000a900473ffffffffffffffffffffffffffffffffffffffff1673ffffffffffffffffffffffffffffffffffffffff167f8be0079c531659141344cd1fd0a4f28419497f9722a3daafe3b4186f6b6457e060405160405180910390a3806000806101000a81548173ffffffffffffffffffffffffffffffffffffffff021916908373ffffffffffffffffffffffffffffffffffffffff16021790555050565b828054600181600116156101000203166002900490600052602060002090601f016020900481019282601f1061238657803560ff19168380011785556123b4565b828001600101855582156123b4579182015b828111156123b3578235825591602001919060010190612398565b5b5090506123c191906123c5565b5090565b5b808211156123de5760008160009055506001016123c6565b5090565b6000813590506123f18161349e565b92915050565b6000815190506124068161349e565b92915050565b60008151905061241b816134b5565b92915050565b60008083601f84011261243357600080fd5b8235905067ffffffffffffffff81111561244c57600080fd5b60208301915083600182028301111561246457600080fd5b9250929050565b600082601f83011261247c57600080fd5b813561248f61248a8261331d565b6132f0565b915080825260208301602083018583830111156124ab57600080fd5b6124b683828461344b565b50505092915050565b6000813590506124ce816134cc565b92915050565b6000815190506124e3816134cc565b92915050565b6000602082840312156124fb57600080fd5b6000612509848285016123e2565b91505092915050565b60006020828403121561252457600080fd5b6000612532848285016123f7565b91505092915050565b60006020828403121561254d57600080fd5b600061255b8482850161240c565b91505092915050565b6000806020838503121561257757600080fd5b600083013567ffffffffffffffff81111561259157600080fd5b61259d85828601612421565b92509250509250929050565b6000806000806000606086880312156125c157600080fd5b600086013567ffffffffffffffff8111156125db57600080fd5b6125e788828901612421565b9550955050602086013567ffffffffffffffff81111561260657600080fd5b61261288828901612421565b93509350506040612625888289016124bf565b9150509295509295909350565b6000806000806000806080878903121561264b57600080fd5b600087013567ffffffffffffffff81111561266557600080fd5b61267189828a01612421565b9650965050602087013567ffffffffffffffff81111561269057600080fd5b61269c89828a01612421565b945094505060406126af89828a016124bf565b92505060606126c089828a016124bf565b9150509295509295509295565b6000806000604084860312156126e257600080fd5b600084013567ffffffffffffffff8111156126fc57600080fd5b61270886828701612421565b9350935050602061271b868287016124bf565b9150509250925092565b60006020828403121561273757600080fd5b600082013567ffffffffffffffff81111561275157600080fd5b61275d8482850161246b565b91505092915050565b6000806040838503121561277957600080fd5b600083013567ffffffffffffffff81111561279357600080fd5b61279f8582860161246b565b92505060206127b0858286016123e2565b9150509250929050565b6000602082840312156127cc57600080fd5b60006127da848285016124d4565b91505092915050565b6000806000604084860312156127f857600080fd5b6000612806868287016124bf565b935050602084013567ffffffffffffffff81111561282357600080fd5b61282f86828701612421565b92509250509250925092565b612844816133cd565b82525050565b61285381613385565b82525050565b61286281613397565b82525050565b612871816133df565b82525050565b61288081613403565b82525050565b60006128928385613369565b935061289f83858461344b565b6128a88361348d565b840190509392505050565b60006128be8261335e565b6128c88185613369565b93506128d881856020860161345a565b6128e18161348d565b840191505092915050565b60006128f78261335e565b612901818561337a565b935061291181856020860161345a565b80840191505092915050565b60008154600181166000811461293a576001811461295f576129a3565b607f600283041661294b818761337a565b955060ff19831686528086019350506129a3565b6002820461296d818761337a565b955061297885613349565b60005b8281101561299a5781548189015260018201915060208101905061297b565b82880195505050505b505092915050565b60006129b8601683613369565b91507f4d757374206265206d696e2e203620706c6179657273000000000000000000006000830152602082019050919050565b60006129f8602683613369565b91507f4f776e61626c653a206e6577206f776e657220697320746865207a65726f206160008301527f64647265737300000000000000000000000000000000000000000000000000006020830152604082019050919050565b6000612a5e600f83613369565b91507f76302e332e312072656c656173656400000000000000000000000000000000006000830152602082019050919050565b6000612a9e600c83613369565b91507f526f6f6d2069732066756c6c00000000000000000000000000000000000000006000830152602082019050919050565b6000612ade601b83613369565b91507f4e6f74207265676973746572656420696e207468697320726f6f6d00000000006000830152602082019050919050565b6000612b1e601483613369565b91507f526f6f6d20646f6573206e6f74206578697374730000000000000000000000006000830152602082019050919050565b6000612b5e601d83613369565b91507f47616d652073746172746564207c7c20526f6f6d20696e6163746976650000006000830152602082019050919050565b6000612b9e600d83613369565b91507f526f6f6d20696e616374697665000000000000000000000000000000000000006000830152602082019050919050565b6000612bde601983613369565b91507f5265717569726520626964203e3d203130303020414d4f4e47000000000000006000830152602082019050919050565b6000612c1e600d83613369565b91507f42616e6b20697320656d707479000000000000000000000000000000000000006000830152602082019050919050565b6000612c5e602083613369565b91507f4f776e61626c653a2063616c6c6572206973206e6f7420746865206f776e65726000830152602082019050919050565b6000612c9e601383613369565b91507f526f6f6d20616c726561647920657869737473000000000000000000000000006000830152602082019050919050565b6000612cde602483613369565b91507f596f7520617265206e6f74206f776e6572206f66207468697320415449434b4560008301527f54204944000000000000000000000000000000000000000000000000000000006020830152604082019050919050565b6000612d44602183613369565b91507f596f7520617265206e6f74206120706c6179657220696e207468697320726f6f60008301527f6d000000000000000000000000000000000000000000000000000000000000006020830152604082019050919050565b6000612daa600483613369565b91507f67616d65000000000000000000000000000000000000000000000000000000006000830152602082019050919050565b6000612dea601b83613369565b91507f416c6c20706c6179657273206d75737420706c616365206269647300000000006000830152602082019050919050565b6000612e2a601183613369565b91507f4e6f7420656e6f75676820746f6b656e730000000000000000000000000000006000830152602082019050919050565b6000612e6a602083613369565b91507f596f7520617265206e6f742063726561746f72206f66207468697320726f6f6d6000830152602082019050919050565b612ea6816133c3565b82525050565b6000612eb882846128ec565b915081905092915050565b6000612ecf828461291d565b915081905092915050565b6000602082019050612eef600083018461284a565b92915050565b6000602082019050612f0a600083018461283b565b92915050565b6000606082019050612f25600083018661283b565b612f32602083018561284a565b612f3f6040830184612e9d565b949350505050565b6000604082019050612f5c600083018561283b565b612f696020830184612e9d565b9392505050565b6000604082019050612f85600083018561284a565b612f926020830184612e9d565b9392505050565b6000602082019050612fae6000830184612859565b92915050565b6000602082019050612fc96000830184612868565b92915050565b6000602082019050612fe46000830184612877565b92915050565b60006040820190508181036000830152613005818587612886565b9050613014602083018461283b565b949350505050565b60006040820190508181036000830152613037818486612886565b9050818103602083015261304a81612d9d565b90509392505050565b6000606082019050818103600083015261306e818688612886565b905061307d6020830185612e9d565b61308a6040830184612e9d565b95945050505050565b600060208201905081810360008301526130ad81846128b3565b905092915050565b600060208201905081810360008301526130ce816129ab565b9050919050565b600060208201905081810360008301526130ee816129eb565b9050919050565b6000602082019050818103600083015261310e81612a51565b9050919050565b6000602082019050818103600083015261312e81612a91565b9050919050565b6000602082019050818103600083015261314e81612ad1565b9050919050565b6000602082019050818103600083015261316e81612b11565b9050919050565b6000602082019050818103600083015261318e81612b51565b9050919050565b600060208201905081810360008301526131ae81612b91565b9050919050565b600060208201905081810360008301526131ce81612bd1565b9050919050565b600060208201905081810360008301526131ee81612c11565b9050919050565b6000602082019050818103600083015261320e81612c51565b9050919050565b6000602082019050818103600083015261322e81612c91565b9050919050565b6000602082019050818103600083015261324e81612cd1565b9050919050565b6000602082019050818103600083015261326e81612d37565b9050919050565b6000602082019050818103600083015261328e81612ddd565b9050919050565b600060208201905081810360008301526132ae81612e1d565b9050919050565b600060208201905081810360008301526132ce81612e5d565b9050919050565b60006020820190506132ea6000830184612e9d565b92915050565b6000604051905081810181811067ffffffffffffffff8211171561331357600080fd5b8060405250919050565b600067ffffffffffffffff82111561333457600080fd5b601f19601f8301169050602081019050919050565b60008190508160005260206000209050919050565b600081519050919050565b600082825260208201905092915050565b600081905092915050565b6000613390826133a3565b9050919050565b60008115159050919050565b600073ffffffffffffffffffffffffffffffffffffffff82169050919050565b6000819050919050565b60006133d882613427565b9050919050565b60006133ea826133f1565b9050919050565b60006133fc826133a3565b9050919050565b600061340e82613415565b9050919050565b6000613420826133a3565b9050919050565b600061343282613439565b9050919050565b6000613444826133a3565b9050919050565b82818337600083830152505050565b60005b8381101561347857808201518184015260208101905061345d565b83811115613487576000848401525b50505050565b6000601f19601f8301169050919050565b6134a781613385565b81146134b257600080fd5b50565b6134be81613397565b81146134c957600080fd5b50565b6134d5816133c3565b81146134e057600080fd5b5056fea2646970667358221220c54d0af68d6989cf12b9bb96d1dadf9f4507b33f3d54a3d4a1f3c2e7d0c03e4264736f6c634300060c0033",
  "immutableReferences": {},
  "source": "pragma solidity >=0.5.0 <0.7.0;\npragma experimental ABIEncoderV2;\n\n\nimport \"./AufToken.sol\";\nimport \"./AufNFT.sol\";\n\ncontract AufGame is Ownable{\n    string public name = \"AUF game core v0.3.0\";\n    AufToken public aufToken;\n    AufNFT public aufNFT;\n    uint256 private constant max_players = 15;\n    uint256 private constant min_players = 6;\n    uint256 private constant max_rooms = 1000; //enough for v0.3.0 \n    uint256 private constant err_rooms = 54321;    \n    uint256 private constant err_players = 21;\n\n   event Log(string a);\n   event CurrentStatus(string room_id, string text_);\n   event RoomCreated(string room_id, address player_);\n   event JoinedToRoom(string room_id, address player_);\n   event BetPlaced(string room_id, uint256 a, uint256 b);\n\n    enum Status { \n        GAME,\n        ACTIVE,\n        INACTIVE\n    } \n    struct Room {\n        string roomID;\n        Status status;\n        bool full;\n        bool exists;\n        uint256 pindex;\n        uint256 bank;\n        uint256 wins;\n        uint256 bids_count;\n        uint256 payments_count;\n        uint256 bids_limit;\n        Player[max_players] players;\n    }\n\n    struct Player {\n        address adr;\n        string username;\n        bool bidder;\n        uint256 bids_amount;\n    }\n    \n    Room[max_rooms] private rooms;\n    uint256 private rindex = 0;\n    uint256 private min_stake = 1000000000000000000000; //1k AMONG tokens\n    address burnaddr = 0x000000000000000000000000000000000000000d;\n\n    constructor(AufToken _aufToken, AufNFT _aufNFT) public {\n        aufToken = _aufToken;\n        aufNFT = _aufNFT;\n    }\n\n    function findRindex(string memory room_id) public view returns(uint256) {\n        for (uint256 i = 0; i < max_rooms; i++) {  \n            if (rooms[i].exists) {        \n            if (keccak256(abi.encodePacked(rooms[i].roomID)) == keccak256(abi.encodePacked(room_id))) {\n                return(i);\n            }\n            }\n        }\n        return(err_rooms);\n    }\n\n    function roomBank(string memory room_id) public view returns(uint256) {\n        uint256 rindex_ = findRindex(room_id);\n        if (rindex_ != err_rooms) { //room exists\n        uint256 bank_ = rooms[rindex_].bank;\n        return (bank_);\n        }\n        return (0);\n    }\n\n    function roomLimit(string memory room_id) public view returns(uint256) {\n        uint256 rindex_ = findRindex(room_id);\n        if (rindex_ != err_rooms) { //room exists\n        uint256 limit_ = rooms[rindex_].bids_limit;\n        return (limit_);\n        }\n        return (0);\n    }\n\n    function bidsCount(string memory room_id) public view returns(uint256) {\n        uint256 rindex_ = findRindex(room_id);\n        if (rindex_ != err_rooms) { //room exists\n        uint256 count_ = rooms[rindex_].bids_count;\n        return (count_);\n        }\n        return (0);\n    }\n\n\n    function findPindex(string memory room_id, address account) public view returns(uint256) {\n        uint256 rindex_ = findRindex(room_id); \n        if (rindex_ != err_rooms) { //room exists\n        for (uint256 i = 0; i < max_players; i++) { \n            if (rooms[rindex_].players[i].adr == account) {\n                return(i);\n            }\n        }\n        }\n        return(err_players);\n    }\n\n    function roomStatus(string memory room_id) public view returns (uint256) {\n        uint256 rindex_ = findRindex(room_id); \n        if (rindex_ == err_rooms) {\n            return (0); //not exisits\n        }\n        if (rooms[rindex_].status == Status.ACTIVE) {\n            return (1); //active\n        }\n        if (rooms[rindex_].status == Status.INACTIVE) {\n            return (2); //game\n        }\n        if (rooms[rindex_].status == Status.GAME) {\n            return (3); //inactive\n        }  \n    } \n\n    modifier onlyPlayer(string memory room_id) {\n        uint256 pindex_ = findPindex(room_id, msg.sender);\n        require(pindex_ != err_players, \"Not registered in this room\");\n    _;\n    }\n\n    modifier onlyRoomCreator(string memory room_id) {\n        uint256 pindex_ = findPindex(room_id, msg.sender);\n        require(pindex_ == 0, \"You are not creator of this room\");\n    _;\n    }\n\n    modifier checkBid(uint256 bid) {\n        require(bid >= min_stake, \"Require bid >= 1000 AMONG\");\n    _;\n    }\n\n    function createRoom(string calldata room_id, string calldata player_name, uint256 nftid, uint256 bidslimit) external {\n        require (rindex < max_rooms, \"v0.3.1 released\");\n        require (bidslimit >= min_stake);\n        uint256 rindex_ = findRindex(room_id);\n        require(rindex_ == err_rooms, \"Room already exists\");\n        require(aufNFT.ownerOf(nftid) == msg.sender, \"You are not owner of this ATICKET ID\");\n        if (nftid > 16 ) {\n        aufNFT.transferFrom(msg.sender, burnaddr, nftid);\n        }\n        rooms[rindex].roomID = room_id;\n        rooms[rindex].status = Status.ACTIVE;\n        rooms[rindex].full = false;\n        rooms[rindex].exists = true;\n        rooms[rindex].pindex = 0;\n        rooms[rindex].bank = 0;\n        rooms[rindex].bids_count = 0;\n        rooms[rindex].payments_count = 0;\n        rooms[rindex].wins = 0;\n        rooms[rindex].bids_limit = bidslimit;\n\n\n        rooms[rindex].players[rooms[rindex].pindex].adr = msg.sender;\n        rooms[rindex].players[rooms[rindex].pindex].username = player_name;\n        rooms[rindex].players[rooms[rindex].pindex].bidder = false;\n        rooms[rindex].players[rooms[rindex].pindex].bids_amount = 0;\n        \n        emit RoomCreated(room_id, msg.sender);\n        rooms[rindex].pindex++;\n        rindex++;    \n    }\n\n    function joinRoom(string calldata room_id, string calldata player_name, uint256 nftid) external {\n\n        uint256 rindex_ = findRindex(room_id);\n        require(rindex_ != err_rooms, \"Room does not exists\");\n        require(rooms[rindex_].full == false, \"Room is full\");\n        require(rooms[rindex_].status == Status.ACTIVE, \"Game started || Room inactive\");\n        require(aufNFT.ownerOf(nftid) == msg.sender, \"You are not owner of this ATICKET ID\");\n\n        if (nftid > 16 ) {\n        aufNFT.transferFrom(msg.sender, burnaddr, nftid);\n        }\n        rooms[rindex_].players[rooms[rindex_].pindex].adr = msg.sender;\n        rooms[rindex_].players[rooms[rindex_].pindex].username = player_name;\n        rooms[rindex_].players[rooms[rindex_].pindex].bidder = false;\n        rooms[rindex_].players[rooms[rindex_].pindex].bids_amount = 0;\n        emit JoinedToRoom(room_id, msg.sender);\n        rooms[rindex_].pindex++;\n            if (rooms[rindex_].pindex == max_players) {   \n                rooms[rindex_].full = true;\n            }\n    }\n\n    function Bet(uint256 stake, string calldata room_id) checkBid(stake) onlyPlayer(room_id) external {\n        uint256 rindex_ = findRindex(room_id);\n        uint256 pindex_ = findPindex(room_id, msg.sender);\n        require(pindex_ != err_players, \"You are not a player in this room\");\n        require(rooms[rindex_].status == Status.ACTIVE, \"Game started || Room inactive\");\n        require(aufToken.balanceOf(msg.sender) >= stake, \"Not enough tokens\");\n        aufToken.transferFrom(msg.sender, address(this), stake);\n        rooms[rindex_].bids_count ++;\n        rooms[rindex_].bank += stake;\n        uint256 a = rooms[rindex_].bids_count;\n        uint256 b = rooms[rindex_].bank ;\n        rooms[rindex_].players[pindex_].bidder = true;\n        rooms[rindex_].players[pindex_].bids_amount += stake;\n        emit BetPlaced(room_id, a, b);\n    }\n\n    function gameStart(string calldata room_id) onlyRoomCreator(room_id) external {\n        uint256 rindex_ = findRindex(room_id);\n        require(rooms[rindex_].players.length >= min_players, \"Must be min. 6 players\");\n        require(rooms[rindex_].players.length <= rooms[rindex_].bids_count, \"All players must place bids\");\n        rooms[rindex_].status = Status.GAME;\n        emit CurrentStatus(room_id, \"game\");\n    }\n\n    function getRewards (string calldata room_id, uint256 winners) onlyPlayer(room_id) external {\n        uint256 rindex_ = findRindex(room_id);\n        require(rooms[rindex_].status == Status.ACTIVE, \"Room inactive\");\n        require( (winners > 0) && (winners < max_players) );\n        if (rooms[rindex_].wins == 0) {\n            rooms[rindex_].wins = winners;\n        }\n\n        uint256 reward = (rooms[rindex_].bank / rooms[rindex_].wins) - (rooms[rindex_].bank % rooms[rindex_].wins);\n        aufToken.transfer(msg.sender, reward);\n        rooms[rindex_].payments_count++;\n        if (rooms[rindex_].payments_count == rooms[rindex_].wins) {\n          rooms[rindex_].status == Status.INACTIVE;  \n        }\n    }\n\n    function withdrawPlayers (string calldata room_id) onlyOwner external {\n        uint256 rindex_ = findRindex(room_id);\n        require(rooms[rindex_].status == Status.ACTIVE, \"Room inactive\");\n        require( rooms[rindex_].bank > 0, \"Bank is empty\" );\n        for (uint256 i = 0; i < max_players; i++) { \n            if (rooms[rindex_].players[i].bids_amount > 0) {\n                aufToken.transfer(rooms[rindex_].players[i].adr, rooms[rindex_].players[i].bids_amount);\n            }\n        }\n        \n        rooms[rindex_].status == Status.INACTIVE;  \n     \n    }\n\n\n}",
  "sourcePath": "/Users/dev/work/code/amongus/src/contracts/AufGame.sol",
  "compiler": {
    "name": "solc",
    "version": "0.6.12+commit.27d51765.Emscripten.clang"
  },
  "schemaVersion": "3.3.4",
  "updatedAt": "2021-07-31T09:14:17.627Z",
  "networkType": "ethereum",
  "devdoc": {
    "kind": "dev",
    "methods": {},
    "version": 1
  },
  "userdoc": {
    "kind": "user",
    "methods": {},
    "version": 1
  }
}